{
  "contractName": "ETHPool",
  "abi": [
    {
      "inputs": [],
      "stateMutability": "nonpayable",
      "type": "constructor"
    },
    {
      "anonymous": false,
      "inputs": [
        {
          "indexed": true,
          "internalType": "address",
          "name": "payee",
          "type": "address"
        },
        {
          "indexed": false,
          "internalType": "uint256",
          "name": "weiAmount",
          "type": "uint256"
        }
      ],
      "name": "Deposited",
      "type": "event"
    },
    {
      "anonymous": false,
      "inputs": [
        {
          "indexed": true,
          "internalType": "address",
          "name": "payee",
          "type": "address"
        },
        {
          "indexed": false,
          "internalType": "uint256",
          "name": "weiAmount",
          "type": "uint256"
        }
      ],
      "name": "Received",
      "type": "event"
    },
    {
      "anonymous": false,
      "inputs": [
        {
          "indexed": true,
          "internalType": "address",
          "name": "withdrawer",
          "type": "address"
        },
        {
          "indexed": false,
          "internalType": "uint256",
          "name": "weiAmount",
          "type": "uint256"
        }
      ],
      "name": "Withdrawn",
      "type": "event"
    },
    {
      "inputs": [],
      "name": "totalDeposit",
      "outputs": [
        {
          "internalType": "uint256",
          "name": "",
          "type": "uint256"
        }
      ],
      "stateMutability": "view",
      "type": "function",
      "constant": true
    },
    {
      "stateMutability": "payable",
      "type": "receive",
      "payable": true
    },
    {
      "inputs": [],
      "name": "owner",
      "outputs": [
        {
          "internalType": "address",
          "name": "",
          "type": "address"
        }
      ],
      "stateMutability": "view",
      "type": "function",
      "constant": true
    },
    {
      "inputs": [],
      "name": "deposit",
      "outputs": [],
      "stateMutability": "payable",
      "type": "function",
      "payable": true
    },
    {
      "inputs": [],
      "name": "addReward",
      "outputs": [],
      "stateMutability": "payable",
      "type": "function",
      "payable": true
    },
    {
      "inputs": [],
      "name": "withdraw",
      "outputs": [],
      "stateMutability": "nonpayable",
      "type": "function"
    }
  ],
  "bytecode": "0x608060405234801561001057600080fd5b50600180546001600160a01b03191633179055610784806100326000396000f3fe60806040526004361061004e5760003560e01c80633ccfd60b1461008f5780638da5cb5b146100a6578063d0e30db0146100d3578063e59a58ee146100db578063f6153ccd146100e357600080fd5b3661008a5760405134815233907f88a5966d370b9919b20f3e2c13ff65706f196a4e32cc2c12bf57088f885258749060200160405180910390a2005b600080fd5b34801561009b57600080fd5b506100a4610107565b005b3480156100b257600080fd5b506001546040516001600160a01b0390911681526020015b60405180910390f35b6100a46102f0565b6100a46103d9565b3480156100ef57600080fd5b506100f960005481565b6040519081526020016100ca565b33600081815260046020908152604080832054600390925282205461012c9190610681565b90506101378261050a565b6001600160a01b038216600090815260036020526040812054815490919081906101629084906106da565b90915550506001600160a01b03821660009081526003602090815260408083208390556004909152812055806101df5760405162461bcd60e51b815260206004820152601a60248201527f506f6f6c3a20696e73756666696369656e742062616c616e636500000000000060448201526064015b60405180910390fd5b6000826001600160a01b03168260405160006040518083038185875af1925050503d806000811461022c576040519150601f19603f3d011682016040523d82523d6000602084013e610231565b606091505b50509050806102a85760405162461bcd60e51b815260206004820152603860248201527f506f6f6c3a20756e61626c6520746f2073656e642076616c75652c207769746860448201527f647261776572206d61792068617665207265766572746564000000000000000060648201526084016101d6565b826001600160a01b03167f7084f5476618d8e60b11ef0d7d3f06914655adb8793e28ff7f018d4c76d505d5836040516102e391815260200190565b60405180910390a2505050565b33600081815260036020526040902054349061035257600280546001810182556000919091527f405787fa12a823e0f2b7631cc41b3ba8828b3321ca811111fa75cd3aa3bb5ace0180546001600160a01b0319166001600160a01b0384161790555b6001600160a01b0382166000908152600360205260408120805483929061037a908490610681565b92505081905550806000808282546103929190610681565b90915550506040518181526001600160a01b038316907f2da466a7b24304f47e87fa2e1e5a81b9831ce54fec19055ce277ca2f39ba42c49060200160405180910390a25050565b336103ec6001546001600160a01b031690565b6001600160a01b0316146104425760405162461bcd60e51b815260206004820152601d60248201527f506f6f6c3a2063616c6c6572206973206e6f7420746865206f776e657200000060448201526064016101d6565b3460005b60025481101561050657600054600360006002848154811061046a5761046a610738565b60009182526020808320909101546001600160a01b0316835282019290925260400190205461049990846106bb565b6104a39190610699565b60046000600284815481106104ba576104ba610738565b60009182526020808320909101546001600160a01b03168352820192909252604001812080549091906104ee908490610681565b909155508190506104fe816106f1565b915050610446565b5050565b6001600160a01b0381166000908152600360205260409020546105795760405162461bcd60e51b815260206004820152602160248201527f506f6f6c3a20746865207573657220697320616c72656164792072656d6f76656044820152601960fa1b60648201526084016101d6565b60005b60025481101561050657816001600160a01b0316600282815481106105a3576105a3610738565b6000918252602090912001546001600160a01b0316141561066f57600280546105ce906001906106da565b815481106105de576105de610738565b600091825260209091200154600280546001600160a01b03909216918390811061060a5761060a610738565b9060005260206000200160006101000a8154816001600160a01b0302191690836001600160a01b03160217905550600280548061064957610649610722565b600082815260209020810160001990810180546001600160a01b03191690550190555050565b80610679816106f1565b91505061057c565b600082198211156106945761069461070c565b500190565b6000826106b657634e487b7160e01b600052601260045260246000fd5b500490565b60008160001904831182151516156106d5576106d561070c565b500290565b6000828210156106ec576106ec61070c565b500390565b60006000198214156107055761070561070c565b5060010190565b634e487b7160e01b600052601160045260246000fd5b634e487b7160e01b600052603160045260246000fd5b634e487b7160e01b600052603260045260246000fdfea2646970667358221220dee0c4603fdbc3f7d53dbf89671bc7509ca16db15e65900b293fb8970d8663ea64736f6c63430008070033",
  "immutableReferences": {},
  "source": "// SPDX-License-Identifier: MIT\npragma solidity ^0.8.0;\n\ncontract ETHPool {\n    uint256 public totalDeposit;\n\n    address private _owner;\n\n    address[] private _users;\n\n    mapping(address => uint256) private _deposits;\n    mapping(address => uint256) private _fees;\n\n    constructor() {\n        _owner = msg.sender;\n    }\n\n    event Received(address indexed payee, uint256 weiAmount);\n    event Deposited(address indexed payee, uint256 weiAmount);\n    event Withdrawn(address indexed withdrawer, uint256 weiAmount);\n\n    receive() external payable {\n        emit Received(msg.sender, msg.value);\n    }\n\n    /**\n     * @dev Returns the address of the current owner.\n     */\n    function owner() public view returns (address) {\n        return _owner;\n    }\n\n    /**\n     * @dev Throws if called by any account other than the owner.\n     */\n    modifier onlyOwner() {\n        require(owner() == msg.sender, \"Pool: caller is not the owner\");\n        _;\n    }\n\n    /**\n     * @dev Stores the sent amount as deposit from users.\n     */\n    function deposit() public payable {\n        address payee = msg.sender;\n        uint256 amount = msg.value;\n\n        if (_deposits[payee] == 0) _users.push(payee);\n\n        _deposits[payee] += amount;\n        totalDeposit += amount;\n\n        emit Deposited(payee, amount);\n    }\n\n    /**\n     * @dev Assign rewards to stake holders.\n     */\n    function addReward() public payable onlyOwner {\n        uint256 amount = msg.value;\n\n        for (uint256 i; i < _users.length; i++) {\n            _fees[_users[i]] += (amount * _deposits[_users[i]]) / totalDeposit;\n        }\n    }\n\n    /**\n     * @dev Withdraw the deposit with the share of rewards.\n     */\n    function withdraw() public {\n        address withdrawer = msg.sender;\n        uint256 amount = _deposits[withdrawer] + _fees[withdrawer];\n\n        _removeUser(withdrawer);\n\n        totalDeposit -= _deposits[withdrawer];\n        _deposits[withdrawer] = 0;\n        _fees[withdrawer] = 0;\n\n        require(amount > 0, \"Pool: insufficient balance\");\n        (bool success, ) = withdrawer.call{value: amount}(\"\");\n        require(\n            success,\n            \"Pool: unable to send value, withdrawer may have reverted\"\n        );\n\n        emit Withdrawn(withdrawer, amount);\n    }\n\n    /**\n     * @dev Remove the user from the user list.\n     * @param user The address to remove.\n     */\n    function _removeUser(address user) private {\n        require(_deposits[user] > 0, \"Pool: the user is already removed\");\n\n        for (uint256 i; i < _users.length; i++) {\n            if (_users[i] == user) {\n                _users[i] = _users[_users.length - 1];\n                _users.pop();\n                break;\n            }\n        }\n    }\n}\n",
  "sourcePath": "/home/kevin/work_test/eth_pool/contracts/ETHPool.sol",
  "compiler": {
    "name": "solc",
    "version": "0.8.7+commit.e28d00a7.Emscripten.clang"
  },
  "schemaVersion": "3.4.3",
  "updatedAt": "2021-12-27T20:40:54.792Z",
  "networkType": "ethereum",
  "devdoc": {
    "kind": "dev",
    "methods": {
      "addReward()": {
        "details": "Assign rewards to stake holders."
      },
      "deposit()": {
        "details": "Stores the sent amount as deposit from users."
      },
      "owner()": {
        "details": "Returns the address of the current owner."
      },
      "withdraw()": {
        "details": "Withdraw the deposit with the share of rewards."
      }
    },
    "version": 1
  },
  "userdoc": {
    "kind": "user",
    "methods": {},
    "version": 1
  }
}