{
  "contractName": "Splitter",
  "abi": [
    {
      "inputs": [],
      "stateMutability": "nonpayable",
      "type": "constructor"
    },
    {
      "anonymous": false,
      "inputs": [
        {
          "indexed": true,
          "internalType": "address",
          "name": "sender",
          "type": "address"
        },
        {
          "indexed": false,
          "internalType": "uint256",
          "name": "weiAmount",
          "type": "uint256"
        }
      ],
      "name": "Received",
      "type": "event"
    },
    {
      "anonymous": false,
      "inputs": [
        {
          "indexed": true,
          "internalType": "address",
          "name": "transfer",
          "type": "address"
        },
        {
          "indexed": true,
          "internalType": "address",
          "name": "token",
          "type": "address"
        },
        {
          "indexed": false,
          "internalType": "uint256",
          "name": "amount",
          "type": "uint256"
        }
      ],
      "name": "Transfered",
      "type": "event"
    },
    {
      "anonymous": false,
      "inputs": [
        {
          "indexed": true,
          "internalType": "address",
          "name": "token",
          "type": "address"
        },
        {
          "indexed": false,
          "internalType": "uint256",
          "name": "amount",
          "type": "uint256"
        }
      ],
      "name": "Withdrawn",
      "type": "event"
    },
    {
      "stateMutability": "payable",
      "type": "receive"
    },
    {
      "inputs": [],
      "name": "owner",
      "outputs": [
        {
          "internalType": "address",
          "name": "",
          "type": "address"
        }
      ],
      "stateMutability": "view",
      "type": "function"
    },
    {
      "inputs": [
        {
          "internalType": "address",
          "name": "token",
          "type": "address"
        },
        {
          "internalType": "uint256",
          "name": "amount",
          "type": "uint256"
        },
        {
          "internalType": "address[]",
          "name": "payees",
          "type": "address[]"
        }
      ],
      "name": "addPayment",
      "outputs": [],
      "stateMutability": "nonpayable",
      "type": "function"
    },
    {
      "inputs": [
        {
          "internalType": "address[]",
          "name": "payees",
          "type": "address[]"
        }
      ],
      "name": "addPayment",
      "outputs": [],
      "stateMutability": "payable",
      "type": "function"
    },
    {
      "inputs": [
        {
          "internalType": "address",
          "name": "token",
          "type": "address"
        }
      ],
      "name": "withdraw",
      "outputs": [],
      "stateMutability": "nonpayable",
      "type": "function"
    }
  ],
  "bytecode": "0x608060405234801561001057600080fd5b50600080546001600160a01b03191633179055610ae7806100326000396000f3fe6080604052600436106100435760003560e01c806351cff8d9146100845780637e7c780c146100a65780638da5cb5b146100c6578063ae2da7e4146100f257600080fd5b3661007f5760405134815233907f88a5966d370b9919b20f3e2c13ff65706f196a4e32cc2c12bf57088f885258749060200160405180910390a2005b600080fd5b34801561009057600080fd5b506100a461009f3660046108b0565b610105565b005b3480156100b257600080fd5b506100a46100c13660046108d2565b6103a8565b3480156100d257600080fd5b50600054604080516001600160a01b039092168252519081900360200190f35b6100a4610100366004610929565b610513565b336101186000546001600160a01b031690565b6001600160a01b03161461017d5760405162461bcd60e51b815260206004820152602160248201527f53706c69747465723a2063616c6c6572206973206e6f7420746865206f776e656044820152603960f91b60648201526084015b60405180910390fd5b6001600160a01b0381166102ad5747806101a95760405162461bcd60e51b8152600401610174906109dc565b600080546040516001600160a01b039091169083908381818185875af1925050503d80600081146101f6576040519150601f19603f3d011682016040523d82523d6000602084013e6101fb565b606091505b50509050806102725760405162461bcd60e51b815260206004820152603760248201527f53706c69747465723a20756e61626c6520746f2073656e642076616c75652c2060448201527f6f776e6572206d617920686176652072657665727465640000000000000000006064820152608401610174565b6040518281526000907f7084f5476618d8e60b11ef0d7d3f06914655adb8793e28ff7f018d4c76d505d59060200160405180910390a2505050565b6040516370a0823160e01b81523060048201526000906001600160a01b038316906370a082319060240160206040518083038186803b1580156102ef57600080fd5b505afa158015610303573d6000803e3d6000fd5b505050506040513d601f19601f820116820180604052508101906103279190610988565b9050600081116103495760405162461bcd60e51b8152600401610174906109dc565b6000546103619083906001600160a01b0316836106a1565b816001600160a01b03167f7084f5476618d8e60b11ef0d7d3f06914655adb8793e28ff7f018d4c76d505d58260405161039c91815260200190565b60405180910390a25050565b6040516323b872dd60e01b8152336004820181905230602483015260448201849052906001600160a01b038516906323b872dd90606401602060405180830381600087803b1580156103f957600080fd5b505af115801561040d573d6000803e3d6000fd5b505050506040513d601f19601f820116820180604052508101906104319190610966565b5081516000906103e8610446866103e7610a35565b6104509190610a13565b61045a9190610a13565b90506000811161047c5760405162461bcd60e51b8152600401610174906109dc565b60005b83518110156104be576104ac8685838151811061049e5761049e610a85565b6020026020010151846106a1565b806104b681610a54565b91505061047f565b50846001600160a01b0316826001600160a01b03167f8930ac7bcb101f94c05b13845098ae74383bfb9e348e73061b730040945cbb828660405161050491815260200190565b60405180910390a35050505050565b8051349033906000906103e861052b856103e7610a35565b6105359190610a13565b61053f9190610a13565b905060008082116105625760405162461bcd60e51b8152600401610174906109dc565b60005b85518110156106625785818151811061058057610580610a85565b60200260200101516001600160a01b03168360405160006040518083038185875af1925050503d80600081146105d2576040519150601f19603f3d011682016040523d82523d6000602084013e6105d7565b606091505b505080925050816106505760405162461bcd60e51b815260206004820152603a60248201527f53706c69747465723a20756e61626c6520746f2073656e642076616c75652c2060448201527f7472616e73666572206d617920686176652072657665727465640000000000006064820152608401610174565b8061065a81610a54565b915050610565565b506040518481526000906001600160a01b038516907f8930ac7bcb101f94c05b13845098ae74383bfb9e348e73061b730040945cbb8290602001610504565b604080518082018252601981527f7472616e7366657228616464726573732c75696e74323536290000000000000060209182015281516001600160a01b0385811660248301526044808301869052845180840390910181526064909201845291810180516001600160e01b031663a9059cbb60e01b1790529151600092839287169161072d91906109a1565b6000604051808303816000865af19150503d806000811461076a576040519150601f19603f3d011682016040523d82523d6000602084013e61076f565b606091505b50915091508180156107995750805115806107995750808060200190518101906107999190610966565b6107e55760405162461bcd60e51b815260206004820152601960248201527f53706c69747465723a205452414e534645525f4641494c4544000000000000006044820152606401610174565b5050505050565b80356001600160a01b038116811461080357600080fd5b919050565b600082601f83011261081957600080fd5b8135602067ffffffffffffffff8083111561083657610836610a9b565b8260051b604051601f19603f8301168101818110848211171561085b5761085b610a9b565b6040528481528381019250868401828801850189101561087a57600080fd5b600092505b858310156108a457610890816107ec565b84529284019260019290920191840161087f565b50979650505050505050565b6000602082840312156108c257600080fd5b6108cb826107ec565b9392505050565b6000806000606084860312156108e757600080fd5b6108f0846107ec565b925060208401359150604084013567ffffffffffffffff81111561091357600080fd5b61091f86828701610808565b9150509250925092565b60006020828403121561093b57600080fd5b813567ffffffffffffffff81111561095257600080fd5b61095e84828501610808565b949350505050565b60006020828403121561097857600080fd5b815180151581146108cb57600080fd5b60006020828403121561099a57600080fd5b5051919050565b6000825160005b818110156109c257602081860181015185830152016109a8565b818111156109d1576000828501525b509190910192915050565b6020808252601e908201527f53706c69747465723a20696e73756666696369656e742062616c616e63650000604082015260600190565b600082610a3057634e487b7160e01b600052601260045260246000fd5b500490565b6000816000190483118215151615610a4f57610a4f610a6f565b500290565b6000600019821415610a6857610a68610a6f565b5060010190565b634e487b7160e01b600052601160045260246000fd5b634e487b7160e01b600052603260045260246000fd5b634e487b7160e01b600052604160045260246000fdfea2646970667358221220d9926825508c859fe725844f212631e0fdd8ad900577f42074c4daf867b0409064736f6c63430008070033",
  "immutableReferences": {},
  "source": "// SPDX-License-Identifier: MIT\npragma solidity ^0.8.0;\n\n/**\n * @dev Interface of the ERC20 standard as defined in the EIP.\n */\ninterface IERC20 {\n    function totalSupply() external view returns (uint256);\n\n    function balanceOf(address account) external view returns (uint256);\n\n    function transfer(address recipient, uint256 amount)\n        external\n        returns (bool);\n\n    function allowance(address owner, address spender)\n        external\n        view\n        returns (uint256);\n\n    function approve(address spender, uint256 amount) external returns (bool);\n\n    function transferFrom(\n        address sender,\n        address recipient,\n        uint256 amount\n    ) external returns (bool);\n\n    event Transfer(address indexed from, address indexed to, uint256 value);\n\n    event Approval(\n        address indexed owner,\n        address indexed spender,\n        uint256 value\n    );\n}\n\ncontract Splitter {\n    address private _owner;\n    bytes4 private constant SELECTOR =\n        bytes4(keccak256(bytes(\"transfer(address,uint256)\")));\n\n    constructor() {\n        _owner = msg.sender;\n    }\n\n    event Received(address indexed sender, uint256 weiAmount);\n    event Transfered(\n        address indexed transfer,\n        address indexed token,\n        uint256 amount\n    );\n    event Withdrawn(address indexed token, uint256 amount);\n\n    receive() external payable {\n        emit Received(msg.sender, msg.value);\n    }\n\n    /**\n     * @dev Returns the address of the current owner.\n     */\n    function owner() public view returns (address) {\n        return _owner;\n    }\n\n    /**\n     * @dev Throws if called by any account other than the owner.\n     */\n    modifier onlyOwner() {\n        require(owner() == msg.sender, \"Splitter: caller is not the owner\");\n        _;\n    }\n\n    /**\n     * @dev Transfer ethers and split to payees.\n     * @param payees The list of payee.\n     */\n    function addPayment(address[] memory payees) external payable {\n        uint256 amount = msg.value;\n        address transfer = msg.sender;\n\n        uint256 unitAmount = (amount * 999) / 1000 / payees.length;\n        bool success;\n\n        require(unitAmount > 0, \"Splitter: insufficient balance\");\n        for (uint256 i; i < payees.length; i++) {\n            (success, ) = payees[i].call{value: unitAmount}(\"\");\n            require(\n                success,\n                \"Splitter: unable to send value, transfer may have reverted\"\n            );\n        }\n\n        emit Transfered(transfer, address(0), amount);\n    }\n\n    /**\n     * @dev Transfer ERC20 token and split to payees.\n     * @param token The address of ERC20.\n     * @param amount The amount of the transferred token.\n     * @param payees The list of payee.\n     */\n    function addPayment(\n        address token,\n        uint256 amount,\n        address[] memory payees\n    ) external {\n        address transfer = msg.sender;\n\n        IERC20(token).transferFrom(transfer, address(this), amount);\n\n        uint256 unitAmount = (amount * 999) / 1000 / payees.length;\n\n        require(unitAmount > 0, \"Splitter: insufficient balance\");\n        for (uint256 i; i < payees.length; i++) {\n            _safeTransfer(token, payees[i], unitAmount);\n        }\n\n        emit Transfered(transfer, token, amount);\n    }\n\n    /**\n     * @dev Withdraw assets\n     * @param token The address of ERC20.\n     */\n    function withdraw(address token) external onlyOwner{\n        if (token == address(0)) {\n            uint amount = address(this).balance;\n            require(amount > 0, \"Splitter: insufficient balance\");\n            (bool success, ) = _owner.call{value: amount}(\"\");\n            require(\n                success,\n                \"Splitter: unable to send value, owner may have reverted\"\n            );\n            emit Withdrawn(address(0), amount);\n        } else {\n            uint amount = IERC20(token).balanceOf(address(this));\n            require(amount > 0, \"Splitter: insufficient balance\");\n            _safeTransfer(token, _owner, amount);\n            emit Withdrawn(token, amount);\n        }\n    }\n\n    /**\n     * @dev Safe transfer of ERC20 token.\n     * @param token The address of ERC20.\n     * @param to The receiver address.\n     * @param value The amount of token.\n     */\n    function _safeTransfer(\n        address token,\n        address to,\n        uint256 value\n    ) private {\n        (bool success, bytes memory data) = token.call(\n            abi.encodeWithSelector(SELECTOR, to, value)\n        );\n        require(\n            success && (data.length == 0 || abi.decode(data, (bool))),\n            \"Splitter: TRANSFER_FAILED\"\n        );\n    }\n}\n",
  "sourcePath": "/home/kevin/work_test/eth_pool/contracts/Splitter.sol",
  "compiler": {
    "name": "solc",
    "version": "0.8.7+commit.e28d00a7.Emscripten.clang"
  },
  "schemaVersion": "3.4.3",
  "updatedAt": "2021-12-28T18:56:41.746Z",
  "devdoc": {
    "kind": "dev",
    "methods": {
      "addPayment(address,uint256,address[])": {
        "details": "Transfer ERC20 token and split to payees.",
        "params": {
          "amount": "The amount of the transferred token.",
          "payees": "The list of payee.",
          "token": "The address of ERC20."
        }
      },
      "addPayment(address[])": {
        "details": "Transfer ethers and split to payees.",
        "params": {
          "payees": "The list of payee."
        }
      },
      "owner()": {
        "details": "Returns the address of the current owner."
      },
      "withdraw(address)": {
        "details": "Withdraw assets",
        "params": {
          "token": "The address of ERC20."
        }
      }
    },
    "version": 1
  },
  "userdoc": {
    "kind": "user",
    "methods": {},
    "version": 1
  }
}